{
  "contractName": "GamblingProblem",
  "abi": [
    {
      "anonymous": false,
      "inputs": [
        {
          "indexed": false,
          "internalType": "address",
          "name": "",
          "type": "address"
        },
        {
          "indexed": false,
          "internalType": "uint256",
          "name": "",
          "type": "uint256"
        }
      ],
      "name": "Received",
      "type": "event"
    },
    {
      "inputs": [],
      "name": "betActive",
      "outputs": [
        {
          "internalType": "bool",
          "name": "",
          "type": "bool"
        }
      ],
      "stateMutability": "view",
      "type": "function"
    },
    {
      "inputs": [],
      "name": "betAmount",
      "outputs": [
        {
          "internalType": "uint256",
          "name": "",
          "type": "uint256"
        }
      ],
      "stateMutability": "view",
      "type": "function"
    },
    {
      "inputs": [],
      "name": "betAmountCounter",
      "outputs": [
        {
          "internalType": "uint256",
          "name": "",
          "type": "uint256"
        }
      ],
      "stateMutability": "view",
      "type": "function"
    },
    {
      "inputs": [],
      "name": "bet_put",
      "outputs": [
        {
          "internalType": "address",
          "name": "",
          "type": "address"
        }
      ],
      "stateMutability": "view",
      "type": "function"
    },
    {
      "inputs": [],
      "name": "bet_take",
      "outputs": [
        {
          "internalType": "address",
          "name": "",
          "type": "address"
        }
      ],
      "stateMutability": "view",
      "type": "function"
    },
    {
      "inputs": [],
      "name": "bet_winner",
      "outputs": [
        {
          "internalType": "address",
          "name": "",
          "type": "address"
        }
      ],
      "stateMutability": "view",
      "type": "function"
    },
    {
      "inputs": [],
      "name": "checkPrice",
      "outputs": [
        {
          "internalType": "int256",
          "name": "",
          "type": "int256"
        }
      ],
      "stateMutability": "view",
      "type": "function"
    },
    {
      "inputs": [],
      "name": "getLatestPrice",
      "outputs": [
        {
          "internalType": "int256",
          "name": "",
          "type": "int256"
        }
      ],
      "stateMutability": "view",
      "type": "function"
    },
    {
      "inputs": [],
      "name": "not_bet_winner",
      "outputs": [
        {
          "internalType": "address",
          "name": "",
          "type": "address"
        }
      ],
      "stateMutability": "view",
      "type": "function"
    },
    {
      "inputs": [],
      "name": "priceGuess",
      "outputs": [
        {
          "internalType": "int256",
          "name": "",
          "type": "int256"
        }
      ],
      "stateMutability": "view",
      "type": "function"
    },
    {
      "inputs": [],
      "name": "pricePool",
      "outputs": [
        {
          "internalType": "uint256",
          "name": "",
          "type": "uint256"
        }
      ],
      "stateMutability": "view",
      "type": "function"
    },
    {
      "inputs": [],
      "name": "price_now",
      "outputs": [
        {
          "internalType": "int256",
          "name": "",
          "type": "int256"
        }
      ],
      "stateMutability": "view",
      "type": "function"
    },
    {
      "stateMutability": "payable",
      "type": "receive"
    },
    {
      "inputs": [
        {
          "internalType": "uint256",
          "name": "_betAmount",
          "type": "uint256"
        },
        {
          "internalType": "uint256",
          "name": "_betAmountCounter",
          "type": "uint256"
        },
        {
          "internalType": "int256",
          "name": "_priceGuess",
          "type": "int256"
        }
      ],
      "name": "placeBet",
      "outputs": [
        {
          "internalType": "int256",
          "name": "",
          "type": "int256"
        }
      ],
      "stateMutability": "payable",
      "type": "function"
    },
    {
      "inputs": [],
      "name": "takeBet",
      "outputs": [],
      "stateMutability": "payable",
      "type": "function"
    },
    {
      "inputs": [],
      "name": "resolveBet",
      "outputs": [
        {
          "internalType": "address",
          "name": "",
          "type": "address"
        }
      ],
      "stateMutability": "payable",
      "type": "function"
    },
    {
      "inputs": [],
      "name": "getCurrentPrice",
      "outputs": [
        {
          "internalType": "int256",
          "name": "",
          "type": "int256"
        }
      ],
      "stateMutability": "nonpayable",
      "type": "function"
    },
    {
      "inputs": [],
      "name": "getPriceGuess",
      "outputs": [
        {
          "internalType": "int256",
          "name": "",
          "type": "int256"
        }
      ],
      "stateMutability": "nonpayable",
      "type": "function"
    },
    {
      "inputs": [],
      "name": "getBetAmount",
      "outputs": [
        {
          "internalType": "uint256",
          "name": "",
          "type": "uint256"
        }
      ],
      "stateMutability": "nonpayable",
      "type": "function"
    },
    {
      "inputs": [],
      "name": "getCounterBetAmount",
      "outputs": [
        {
          "internalType": "uint256",
          "name": "",
          "type": "uint256"
        }
      ],
      "stateMutability": "nonpayable",
      "type": "function"
    }
  ],
  "bytecode": "0x60806040526000600c60006101000a81548160ff02191690831515021790555034801561002b57600080fd5b50738a753747a1fa494ec906ce90e9f37563a8af630e6000806101000a81548173ffffffffffffffffffffffffffffffffffffffff021916908373ffffffffffffffffffffffffffffffffffffffff160217905550610f0d8061008f6000396000f3fe6080604052600436106101185760003560e01c80638fced626116100a0578063ea27b3fe11610064578063ea27b3fe1461038e578063eb91d37e146103b9578063f0708e70146103e4578063f6e7badb1461040f578063fde41e291461043a57610158565b80638fced626146102bf578063a4e50934146102dd578063c7e12aa81461030d578063d24257c014610338578063e102ead71461036357610158565b806369d34faf116100e757806369d34faf146101e85780638851e875146102135780638dafa2ee1461023e5780638e15f473146102695780638fc3047d1461029457610158565b806303b5d4941461015d5780634ece451e1461016757806356b95e8814610192578063615294e3146101bd57610158565b36610158577f88a5966d370b9919b20f3e2c13ff65706f196a4e32cc2c12bf57088f88525874333460405161014e929190610b2f565b60405180910390a1005b600080fd5b610165610465565b005b34801561017357600080fd5b5061017c6105b7565b6040516101899190610b58565b60405180910390f35b34801561019e57600080fd5b506101a76105bd565b6040516101b49190610b58565b60405180910390f35b3480156101c957600080fd5b506101d26105c3565b6040516101df9190610b73565b60405180910390f35b3480156101f457600080fd5b506101fd6105e9565b60405161020a9190610b73565b60405180910390f35b34801561021f57600080fd5b5061022861060f565b6040516102359190610b73565b60405180910390f35b34801561024a57600080fd5b50610253610635565b6040516102609190610ba7565b60405180910390f35b34801561027557600080fd5b5061027e61063b565b60405161028b9190610ba7565b60405180910390f35b3480156102a057600080fd5b506102a96106e8565b6040516102b69190610ba7565b60405180910390f35b6102c76106ee565b6040516102d49190610b73565b60405180910390f35b6102f760048036038101906102f29190610c1f565b61090d565b6040516103049190610ba7565b60405180910390f35b34801561031957600080fd5b50610322610a5a565b60405161032f9190610ba7565b60405180910390f35b34801561034457600080fd5b5061034d610a64565b60405161035a9190610b58565b60405180910390f35b34801561036f57600080fd5b50610378610a6a565b6040516103859190610ba7565b60405180910390f35b34801561039a57600080fd5b506103a3610a70565b6040516103b09190610c8d565b60405180910390f35b3480156103c557600080fd5b506103ce610a83565b6040516103db9190610ba7565b60405180910390f35b3480156103f057600080fd5b506103f9610a9b565b6040516104069190610b73565b60405180910390f35b34801561041b57600080fd5b50610424610ac1565b6040516104319190610b58565b60405180910390f35b34801561044657600080fd5b5061044f610acb565b60405161045c9190610b58565b60405180910390f35b600c60009054906101000a900460ff1661047e57600080fd5b603c60085461048d9190610cd7565b42111561049957600080fd5b60065434146104a757600080fd5b6000803073ffffffffffffffffffffffffffffffffffffffff166006546040516104d090610d5e565b60006040518083038185875af1925050503d806000811461050d576040519150601f19603f3d011682016040523d82523d6000602084013e610512565b606091505b509150915081610557576040517f08c379a000000000000000000000000000000000000000000000000000000000815260040161054e90610dd0565b60405180910390fd5b33600260006101000a81548173ffffffffffffffffffffffffffffffffffffffff021916908373ffffffffffffffffffffffffffffffffffffffff160217905550600554600760008282546105ac9190610cd7565b925050819055505050565b60065481565b60075481565b600360009054906101000a900473ffffffffffffffffffffffffffffffffffffffff1681565b600460009054906101000a900473ffffffffffffffffffffffffffffffffffffffff1681565b600260009054906101000a900473ffffffffffffffffffffffffffffffffffffffff1681565b600a5481565b60008060008060008060008054906101000a900473ffffffffffffffffffffffffffffffffffffffff1673ffffffffffffffffffffffffffffffffffffffff1663feaf968c6040518163ffffffff1660e01b815260040160a060405180830381865afa1580156106af573d6000803e3d6000fd5b505050506040513d601f19601f820116820180604052508101906106d39190610e5c565b94509450945094509450839550505050505090565b60095481565b60006106f861063b565b600a8190555060b460085461070d9190610cd7565b42111561071957600080fd5b60786008546107289190610cd7565b42101561073457600080fd5b600a54600b54126107a757600160009054906101000a900473ffffffffffffffffffffffffffffffffffffffff16600360006101000a81548173ffffffffffffffffffffffffffffffffffffffff021916908373ffffffffffffffffffffffffffffffffffffffff16021790555061080b565b600260009054906101000a900473ffffffffffffffffffffffffffffffffffffffff16600360006101000a81548173ffffffffffffffffffffffffffffffffffffffff021916908373ffffffffffffffffffffffffffffffffffffffff1602179055505b60006007549050600080600360009054906101000a900473ffffffffffffffffffffffffffffffffffffffff1673ffffffffffffffffffffffffffffffffffffffff168360405161085b90610d5e565b60006040518083038185875af1925050503d8060008114610898576040519150601f19603f3d011682016040523d82523d6000602084013e61089d565b606091505b5091509150816108e2576040517f08c379a00000000000000000000000000000000000000000000000000000000081526004016108d990610dd0565b60405180910390fd5b600360009054906101000a900473ffffffffffffffffffffffffffffffffffffffff16935050505090565b6000836005819055508260068190555081600b819055506001600c60006101000a81548160ff021916908315150217905550600554600781905550346005541461095657600080fd5b6000803073ffffffffffffffffffffffffffffffffffffffff163460405161097d90610d5e565b60006040518083038185875af1925050503d80600081146109ba576040519150601f19603f3d011682016040523d82523d6000602084013e6109bf565b606091505b509150915081610a04576040517f08c379a00000000000000000000000000000000000000000000000000000000081526004016109fb90610dd0565b60405180910390fd5b33600160006101000a81548173ffffffffffffffffffffffffffffffffffffffff021916908373ffffffffffffffffffffffffffffffffffffffff16021790555042600881905550600b54925050509392505050565b6000600b54905090565b60055481565b600b5481565b600c60009054906101000a900460ff1681565b6000610a8d61063b565b600981905550600954905090565b600160009054906101000a900473ffffffffffffffffffffffffffffffffffffffff1681565b6000600654905090565b6000600554905090565b600073ffffffffffffffffffffffffffffffffffffffff82169050919050565b6000610b0082610ad5565b9050919050565b610b1081610af5565b82525050565b6000819050919050565b610b2981610b16565b82525050565b6000604082019050610b446000830185610b07565b610b516020830184610b20565b9392505050565b6000602082019050610b6d6000830184610b20565b92915050565b6000602082019050610b886000830184610b07565b92915050565b6000819050919050565b610ba181610b8e565b82525050565b6000602082019050610bbc6000830184610b98565b92915050565b600080fd5b610bd081610b16565b8114610bdb57600080fd5b50565b600081359050610bed81610bc7565b92915050565b610bfc81610b8e565b8114610c0757600080fd5b50565b600081359050610c1981610bf3565b92915050565b600080600060608486031215610c3857610c37610bc2565b5b6000610c4686828701610bde565b9350506020610c5786828701610bde565b9250506040610c6886828701610c0a565b9150509250925092565b60008115159050919050565b610c8781610c72565b82525050565b6000602082019050610ca26000830184610c7e565b92915050565b7f4e487b7100000000000000000000000000000000000000000000000000000000600052601160045260246000fd5b6000610ce282610b16565b9150610ced83610b16565b9250827fffffffffffffffffffffffffffffffffffffffffffffffffffffffffffffffff03821115610d2257610d21610ca8565b5b828201905092915050565b600081905092915050565b50565b6000610d48600083610d2d565b9150610d5382610d38565b600082019050919050565b6000610d6982610d3b565b9150819050919050565b600082825260208201905092915050565b7f4661696c656420746f2073656e64204574686572000000000000000000000000600082015250565b6000610dba601483610d73565b9150610dc582610d84565b602082019050919050565b60006020820190508181036000830152610de981610dad565b9050919050565b600069ffffffffffffffffffff82169050919050565b610e0f81610df0565b8114610e1a57600080fd5b50565b600081519050610e2c81610e06565b92915050565b600081519050610e4181610bf3565b92915050565b600081519050610e5681610bc7565b92915050565b600080600080600060a08688031215610e7857610e77610bc2565b5b6000610e8688828901610e1d565b9550506020610e9788828901610e32565b9450506040610ea888828901610e47565b9350506060610eb988828901610e47565b9250506080610eca88828901610e1d565b915050929550929590935056fea264697066735822122081d4df50292e253182183c9fc490070b9b69328e62b9793a6c4f680bfaa23ae164736f6c634300080b0033",
  "immutableReferences": {},
  "source": "// SPDX-License-Identifier: MIT\n\npragma solidity ^0.8.7;\n\nimport \"./PriceOrakle.sol\";\n\n\n/// @title Gambling on ETH\n/// @author ThorbenSpanka\n/// @notice betting wether Ether USD Price is going up or down in the next 2-3 minutes\n/// @dev this contract inherits from chainlinks ETHUSD Price Orakle\ncontract GamblingProblem is PriceOrakle {\n    \n\n//     Public - Can be accessed by all contracts. \n\n//    External - Can be accessed externally only. \n\n  //  Internal -  Contracts within the system and contracts deriving from them can access. \n\n//    Private -  Can be accessed only by authorized contracts. \n\n\n// address\n\naddress public bet_put;\naddress public bet_take;\naddress public bet_winner;\naddress public not_bet_winner;\n\n// Uints\nuint public betAmount;\nuint public betAmountCounter;\n\nuint public pricePool;\n\nuint start;\n\nint public checkPrice;\nint public price_now;\nint public priceGuess;\n\n\n// Bools\nbool public betActive = false;\n\n// Events\nevent Received(address, uint);\n\n\n// \n// someone should be able to place a bet with ethereum on wether ethereum eur exchange rate \n// will be equal above or below a certain level in 10 blocks time\n    /// @notice Function to place a bet on future ETHUSD Price\n    /// @dev This function includes a call to the price oracle from inherited contract. The function is payable.\n    /// @param _betAmount How much you want to bet in Wei\n    /// @param _betAmountCounter How much the BetTaker should bet\n    /// @param _priceGuess betting the future price will be higher equal than the price guess\n    ///  that there is an active bet going on for someone to take\n    function placeBet(uint _betAmount, uint _betAmountCounter ,int _priceGuess) external payable returns (int){\n\n        betAmount = _betAmount;\n        betAmountCounter = _betAmountCounter;\n        priceGuess = _priceGuess;\n        betActive = true;\n        pricePool = betAmount;\n        // pay money into the contract for the bet\n        // https://consensys.net/diligence/blog/2019/09/stop-using-soliditys-transfer-now/\n        \n        require(betAmount == msg.value);\n        (bool sent, bytes memory data) = payable(address(this)).call{value: msg.value}(\"\");\n        require(sent, \"Failed to send Ether\");\n        bet_put = msg.sender;\n        \n        start = block.timestamp;\n        return priceGuess;\n    }\n\n    /// @notice accept the bet, ideally after looking into the specifics\n    /// @dev payable function\n    function takeBet() external payable {\n        require(betActive);\n        require(block.timestamp <= start + 1 * 1 minutes);\n        require(msg.value == betAmountCounter);\n        (bool sent, bytes memory data) = payable(address(this)).call{value: betAmountCounter}(\"\");\n        require(sent, \"Failed to send Ether\");\n        bet_take = msg.sender;\n        pricePool += betAmount;\n    }\n\n    /// @notice resolving the bet, if this does not happen on time, the Eth will become part \n    /// @notice of next bets price pool. Bet can only be resolved 60 minutes after Bet has been placed\n    /// @notice and only until 70 min after it. \n    /// @dev payable function, sending ETH to winner of Bet\n    /// returns an address of the bet winner\n    function resolveBet() public payable returns (address){\n        price_now = getLatestPrice();\n        require(block.timestamp <= start + 3 * 1 minutes);\n        require(block.timestamp >= start + 2 * 1 minutes);\n\n        if(priceGuess >= price_now){\n            bet_winner = bet_put;\n        } else {\n            bet_winner = bet_take;\n            }\n\n        uint  price = pricePool;\n        (bool sent, bytes memory data) = bet_winner.call{value: price}(\"\");\n        require(sent, \"Failed to send Ether\");\n        return bet_winner;\n    }\n\n    /// @notice request current Price from Chainlink oracle.\n    /// @return get current price from Chainlink\n    function getCurrentPrice() public returns (int) {\n        checkPrice = getLatestPrice();\n        return checkPrice;\n    }\n\n    /// @notice request price guess\n    /// @return priceGuess as an int because of compatability with Chainlink\n    function getPriceGuess() public returns (int) {\n        return priceGuess;\n    }\n\n    /// @notice request bet amount\n    /// @return uint betAmount\n    function getBetAmount() public returns (uint) {\n        return betAmount;\n    }\n\n    /// @notice request counter bet amount\n    /// @return uint betAmountCounter\n    function getCounterBetAmount() public returns (uint) {\n        return betAmountCounter;\n    }\n\n\n// allow contract to get eth/tokens\n    receive() external payable {\n       emit Received(msg.sender, msg.value);\n    }\n}",
  "sourcePath": "/home/ts/Blockchain/blockchain-developer-bootcamp-final-project/contracts/GP.sol",
  "compiler": {
    "name": "solc",
    "version": "0.8.11+commit.d7f03943.Emscripten.clang"
  },
  "schemaVersion": "3.4.4",
  "updatedAt": "2022-01-13T20:53:18.035Z",
  "devdoc": {
    "author": "ThorbenSpanka",
    "details": "this contract inherits from chainlinks ETHUSD Price Orakle",
    "kind": "dev",
    "methods": {
      "getBetAmount()": {
        "returns": {
          "_0": "uint betAmount"
        }
      },
      "getCounterBetAmount()": {
        "returns": {
          "_0": "uint betAmountCounter"
        }
      },
      "getCurrentPrice()": {
        "returns": {
          "_0": "get current price from Chainlink"
        }
      },
      "getPriceGuess()": {
        "returns": {
          "_0": "priceGuess as an int because of compatability with Chainlink"
        }
      },
      "placeBet(uint256,uint256,int256)": {
        "details": "This function includes a call to the price oracle from inherited contract. The function is payable.",
        "params": {
          "_betAmount": "How much you want to bet in Wei",
          "_betAmountCounter": "How much the BetTaker should bet",
          "_priceGuess": "betting the future price will be higher equal than the price guess  that there is an active bet going on for someone to take"
        }
      },
      "resolveBet()": {
        "details": "payable function, sending ETH to winner of Bet returns an address of the bet winner"
      },
      "takeBet()": {
        "details": "payable function"
      }
    },
    "title": "Gambling on ETH",
    "version": 1
  },
  "userdoc": {
    "kind": "user",
    "methods": {
      "getBetAmount()": {
        "notice": "request bet amount"
      },
      "getCounterBetAmount()": {
        "notice": "request counter bet amount"
      },
      "getCurrentPrice()": {
        "notice": "request current Price from Chainlink oracle."
      },
      "getPriceGuess()": {
        "notice": "request price guess"
      },
      "placeBet(uint256,uint256,int256)": {
        "notice": "Function to place a bet on future ETHUSD Price"
      },
      "resolveBet()": {
        "notice": "resolving the bet, if this does not happen on time, the Eth will become part of next bets price pool. Bet can only be resolved 60 minutes after Bet has been placedand only until 70 min after it. "
      },
      "takeBet()": {
        "notice": "accept the bet, ideally after looking into the specifics"
      }
    },
    "notice": "betting wether Ether USD Price is going up or down in the next 2-3 minutes",
    "version": 1
  }
}